{
  "_format": "hh-sol-artifact-1",
  "contractName": "MyNFT",
  "sourceName": "contracts/MyNFT.sol",
  "abi": [
    {
      "inputs": [
        {
          "internalType": "address",
          "name": "_marketplaceAddress",
          "type": "address"
        }
      ],
      "stateMutability": "nonpayable",
      "type": "constructor"
    },
    {
      "anonymous": false,
      "inputs": [
        {
          "indexed": true,
          "internalType": "address",
          "name": "owner",
          "type": "address"
        },
        {
          "indexed": true,
          "internalType": "address",
          "name": "approved",
          "type": "address"
        },
        {
          "indexed": true,
          "internalType": "uint256",
          "name": "tokenId",
          "type": "uint256"
        }
      ],
      "name": "Approval",
      "type": "event"
    },
    {
      "anonymous": false,
      "inputs": [
        {
          "indexed": true,
          "internalType": "address",
          "name": "to",
          "type": "address"
        },
        {
          "indexed": true,
          "internalType": "uint256",
          "name": "tokenId",
          "type": "uint256"
        },
        {
          "indexed": false,
          "internalType": "string",
          "name": "tokenURI",
          "type": "string"
        }
      ],
      "name": "Minted",
      "type": "event"
    },
    {
      "anonymous": false,
      "inputs": [
        {
          "indexed": true,
          "internalType": "address",
          "name": "from",
          "type": "address"
        },
        {
          "indexed": true,
          "internalType": "address",
          "name": "to",
          "type": "address"
        },
        {
          "indexed": true,
          "internalType": "uint256",
          "name": "tokenId",
          "type": "uint256"
        }
      ],
      "name": "Transfer",
      "type": "event"
    },
    {
      "inputs": [
        {
          "internalType": "address",
          "name": "to",
          "type": "address"
        },
        {
          "internalType": "uint256",
          "name": "tokenId",
          "type": "uint256"
        }
      ],
      "name": "approve",
      "outputs": [],
      "stateMutability": "nonpayable",
      "type": "function"
    },
    {
      "inputs": [
        {
          "internalType": "address",
          "name": "_owner",
          "type": "address"
        }
      ],
      "name": "balanceOf",
      "outputs": [
        {
          "internalType": "uint256",
          "name": "",
          "type": "uint256"
        }
      ],
      "stateMutability": "view",
      "type": "function"
    },
    {
      "inputs": [
        {
          "internalType": "uint256",
          "name": "tokenId",
          "type": "uint256"
        }
      ],
      "name": "getApproved",
      "outputs": [
        {
          "internalType": "address",
          "name": "",
          "type": "address"
        }
      ],
      "stateMutability": "view",
      "type": "function"
    },
    {
      "inputs": [],
      "name": "marketplaceAddress",
      "outputs": [
        {
          "internalType": "address",
          "name": "",
          "type": "address"
        }
      ],
      "stateMutability": "view",
      "type": "function"
    },
    {
      "inputs": [
        {
          "internalType": "address",
          "name": "to",
          "type": "address"
        },
        {
          "internalType": "string",
          "name": "uri",
          "type": "string"
        }
      ],
      "name": "mintNFT",
      "outputs": [
        {
          "internalType": "uint256",
          "name": "",
          "type": "uint256"
        }
      ],
      "stateMutability": "nonpayable",
      "type": "function"
    },
    {
      "inputs": [],
      "name": "owner",
      "outputs": [
        {
          "internalType": "address",
          "name": "",
          "type": "address"
        }
      ],
      "stateMutability": "view",
      "type": "function"
    },
    {
      "inputs": [
        {
          "internalType": "uint256",
          "name": "tokenId",
          "type": "uint256"
        }
      ],
      "name": "ownerOf",
      "outputs": [
        {
          "internalType": "address",
          "name": "",
          "type": "address"
        }
      ],
      "stateMutability": "view",
      "type": "function"
    },
    {
      "inputs": [],
      "name": "tokenIdCounter",
      "outputs": [
        {
          "internalType": "uint256",
          "name": "",
          "type": "uint256"
        }
      ],
      "stateMutability": "view",
      "type": "function"
    },
    {
      "inputs": [
        {
          "internalType": "uint256",
          "name": "tokenId",
          "type": "uint256"
        }
      ],
      "name": "tokenURI",
      "outputs": [
        {
          "internalType": "string",
          "name": "",
          "type": "string"
        }
      ],
      "stateMutability": "view",
      "type": "function"
    },
    {
      "inputs": [
        {
          "internalType": "address",
          "name": "to",
          "type": "address"
        },
        {
          "internalType": "uint256",
          "name": "tokenId",
          "type": "uint256"
        }
      ],
      "name": "transfer",
      "outputs": [],
      "stateMutability": "nonpayable",
      "type": "function"
    }
  ],
  "bytecode": "0x60806040523480156200001157600080fd5b50604051620017cd380380620017cd833981810160405281019062000037919062000132565b33600160006101000a81548173ffffffffffffffffffffffffffffffffffffffff021916908373ffffffffffffffffffffffffffffffffffffffff16021790555080600260006101000a81548173ffffffffffffffffffffffffffffffffffffffff021916908373ffffffffffffffffffffffffffffffffffffffff16021790555060016000819055505062000164565b600080fd5b600073ffffffffffffffffffffffffffffffffffffffff82169050919050565b6000620000fa82620000cd565b9050919050565b6200010c81620000ed565b81146200011857600080fd5b50565b6000815190506200012c8162000101565b92915050565b6000602082840312156200014b576200014a620000c8565b5b60006200015b848285016200011b565b91505092915050565b61165980620001746000396000f3fe608060405234801561001057600080fd5b506004361061009e5760003560e01c806398bdf6f51161006657806398bdf6f51461016d578063a9059cbb1461018b578063c87b56dd146101a7578063daa17f49146101d7578063eacabe14146101f55761009e565b8063081812fc146100a3578063095ea7b3146100d35780636352211e146100ef57806370a082311461011f5780638da5cb5b1461014f575b600080fd5b6100bd60048036038101906100b89190610c71565b610225565b6040516100ca9190610cdf565b60405180910390f35b6100ed60048036038101906100e89190610d26565b610262565b005b61010960048036038101906101049190610c71565b6103b4565b6040516101169190610cdf565b60405180910390f35b61013960048036038101906101349190610d66565b610465565b6040516101469190610da2565b60405180910390f35b61015761051c565b6040516101649190610cdf565b60405180910390f35b610175610542565b6040516101829190610da2565b60405180910390f35b6101a560048036038101906101a09190610d26565b610548565b005b6101c160048036038101906101bc9190610c71565b6108ac565b6040516101ce9190610e4d565b60405180910390f35b6101df6109f3565b6040516101ec9190610cdf565b60405180910390f35b61020f600480360381019061020a9190610fa4565b610a19565b60405161021c9190610da2565b60405180910390f35b60006006600083815260200190815260200160002060009054906101000a900473ffffffffffffffffffffffffffffffffffffffff169050919050565b6003600082815260200190815260200160002060009054906101000a900473ffffffffffffffffffffffffffffffffffffffff1673ffffffffffffffffffffffffffffffffffffffff163373ffffffffffffffffffffffffffffffffffffffff1614610303576040517f08c379a00000000000000000000000000000000000000000000000000000000081526004016102fa9061104c565b60405180910390fd5b816006600083815260200190815260200160002060006101000a81548173ffffffffffffffffffffffffffffffffffffffff021916908373ffffffffffffffffffffffffffffffffffffffff160217905550808273ffffffffffffffffffffffffffffffffffffffff163373ffffffffffffffffffffffffffffffffffffffff167f8c5be1e5ebec7d5bd14f71427d1e84f3dd0314c0f7b2291e5b200ac8c7c3b92560405160405180910390a45050565b6000806003600084815260200190815260200160002060009054906101000a900473ffffffffffffffffffffffffffffffffffffffff169050600073ffffffffffffffffffffffffffffffffffffffff168173ffffffffffffffffffffffffffffffffffffffff160361045c576040517f08c379a0000000000000000000000000000000000000000000000000000000008152600401610453906110b8565b60405180910390fd5b80915050919050565b60008073ffffffffffffffffffffffffffffffffffffffff168273ffffffffffffffffffffffffffffffffffffffff16036104d5576040517f08c379a00000000000000000000000000000000000000000000000000000000081526004016104cc90611124565b60405180910390fd5b600560008373ffffffffffffffffffffffffffffffffffffffff1673ffffffffffffffffffffffffffffffffffffffff168152602001908152602001600020549050919050565b600160009054906101000a900473ffffffffffffffffffffffffffffffffffffffff1681565b60005481565b600073ffffffffffffffffffffffffffffffffffffffff168273ffffffffffffffffffffffffffffffffffffffff16036105b7576040517f08c379a00000000000000000000000000000000000000000000000000000000081526004016105ae90611190565b60405180910390fd5b6003600082815260200190815260200160002060009054906101000a900473ffffffffffffffffffffffffffffffffffffffff1673ffffffffffffffffffffffffffffffffffffffff163373ffffffffffffffffffffffffffffffffffffffff16148061068257506006600082815260200190815260200160002060009054906101000a900473ffffffffffffffffffffffffffffffffffffffff1673ffffffffffffffffffffffffffffffffffffffff163373ffffffffffffffffffffffffffffffffffffffff16145b6106c1576040517f08c379a00000000000000000000000000000000000000000000000000000000081526004016106b890611222565b60405180910390fd5b60006003600083815260200190815260200160002060009054906101000a900473ffffffffffffffffffffffffffffffffffffffff16905060006006600084815260200190815260200160002060006101000a81548173ffffffffffffffffffffffffffffffffffffffff021916908373ffffffffffffffffffffffffffffffffffffffff1602179055506001600560008373ffffffffffffffffffffffffffffffffffffffff1673ffffffffffffffffffffffffffffffffffffffff168152602001908152602001600020600082825461079c9190611271565b925050819055506001600560008573ffffffffffffffffffffffffffffffffffffffff1673ffffffffffffffffffffffffffffffffffffffff16815260200190815260200160002060008282546107f391906112a5565b92505081905550826003600084815260200190815260200160002060006101000a81548173ffffffffffffffffffffffffffffffffffffffff021916908373ffffffffffffffffffffffffffffffffffffffff160217905550818373ffffffffffffffffffffffffffffffffffffffff168273ffffffffffffffffffffffffffffffffffffffff167fddf252ad1be2c89b69c2b068fc378daa952ba7f163c4a11628f55a4df523b3ef60405160405180910390a4505050565b6060600073ffffffffffffffffffffffffffffffffffffffff166003600084815260200190815260200160002060009054906101000a900473ffffffffffffffffffffffffffffffffffffffff1673ffffffffffffffffffffffffffffffffffffffff1603610950576040517f08c379a0000000000000000000000000000000000000000000000000000000008152600401610947906110b8565b60405180910390fd5b60046000838152602001908152602001600020805461096e90611308565b80601f016020809104026020016040519081016040528092919081815260200182805461099a90611308565b80156109e75780601f106109bc576101008083540402835291602001916109e7565b820191906000526020600020905b8154815290600101906020018083116109ca57829003601f168201915b50505050509050919050565b600260009054906101000a900473ffffffffffffffffffffffffffffffffffffffff1681565b60008073ffffffffffffffffffffffffffffffffffffffff168373ffffffffffffffffffffffffffffffffffffffff1603610a89576040517f08c379a0000000000000000000000000000000000000000000000000000000008152600401610a8090611385565b60405180910390fd5b600080549050836003600083815260200190815260200160002060006101000a81548173ffffffffffffffffffffffffffffffffffffffff021916908373ffffffffffffffffffffffffffffffffffffffff16021790555082600460008381526020019081526020016000209081610b019190611551565b506001600560008673ffffffffffffffffffffffffffffffffffffffff1673ffffffffffffffffffffffffffffffffffffffff1681526020019081526020016000206000828254610b5291906112a5565b92505081905550808473ffffffffffffffffffffffffffffffffffffffff167fe7cd4ce7f2a465edc730269a1305e8a48bad821e8fb7e152ec413829c01a53c485604051610ba09190610e4d565b60405180910390a3808473ffffffffffffffffffffffffffffffffffffffff16600073ffffffffffffffffffffffffffffffffffffffff167fddf252ad1be2c89b69c2b068fc378daa952ba7f163c4a11628f55a4df523b3ef60405160405180910390a46001600080828254610c1691906112a5565b925050819055508091505092915050565b6000604051905090565b600080fd5b600080fd5b6000819050919050565b610c4e81610c3b565b8114610c5957600080fd5b50565b600081359050610c6b81610c45565b92915050565b600060208284031215610c8757610c86610c31565b5b6000610c9584828501610c5c565b91505092915050565b600073ffffffffffffffffffffffffffffffffffffffff82169050919050565b6000610cc982610c9e565b9050919050565b610cd981610cbe565b82525050565b6000602082019050610cf46000830184610cd0565b92915050565b610d0381610cbe565b8114610d0e57600080fd5b50565b600081359050610d2081610cfa565b92915050565b60008060408385031215610d3d57610d3c610c31565b5b6000610d4b85828601610d11565b9250506020610d5c85828601610c5c565b9150509250929050565b600060208284031215610d7c57610d7b610c31565b5b6000610d8a84828501610d11565b91505092915050565b610d9c81610c3b565b82525050565b6000602082019050610db76000830184610d93565b92915050565b600081519050919050565b600082825260208201905092915050565b60005b83811015610df7578082015181840152602081019050610ddc565b60008484015250505050565b6000601f19601f8301169050919050565b6000610e1f82610dbd565b610e298185610dc8565b9350610e39818560208601610dd9565b610e4281610e03565b840191505092915050565b60006020820190508181036000830152610e678184610e14565b905092915050565b600080fd5b600080fd5b7f4e487b7100000000000000000000000000000000000000000000000000000000600052604160045260246000fd5b610eb182610e03565b810181811067ffffffffffffffff82111715610ed057610ecf610e79565b5b80604052505050565b6000610ee3610c27565b9050610eef8282610ea8565b919050565b600067ffffffffffffffff821115610f0f57610f0e610e79565b5b610f1882610e03565b9050602081019050919050565b82818337600083830152505050565b6000610f47610f4284610ef4565b610ed9565b905082815260208101848484011115610f6357610f62610e74565b5b610f6e848285610f25565b509392505050565b600082601f830112610f8b57610f8a610e6f565b5b8135610f9b848260208601610f34565b91505092915050565b60008060408385031215610fbb57610fba610c31565b5b6000610fc985828601610d11565b925050602083013567ffffffffffffffff811115610fea57610fe9610c36565b5b610ff685828601610f76565b9150509250929050565b7f4f6e6c79206f776e65722063616e20617070726f766500000000000000000000600082015250565b6000611036601683610dc8565b915061104182611000565b602082019050919050565b6000602082019050818103600083015261106581611029565b9050919050565b7f546f6b656e20646f6573206e6f74206578697374000000000000000000000000600082015250565b60006110a2601483610dc8565b91506110ad8261106c565b602082019050919050565b600060208201905081810360008301526110d181611095565b9050919050565b7f43616e6e6f74207175657279207a65726f206164647265737300000000000000600082015250565b600061110e601983610dc8565b9150611119826110d8565b602082019050919050565b6000602082019050818103600083015261113d81611101565b9050919050565b7f43616e6e6f74207472616e7366657220746f207a65726f206164647265737300600082015250565b600061117a601f83610dc8565b915061118582611144565b602082019050919050565b600060208201905081810360008301526111a98161116d565b9050919050565b7f4f6e6c79206f776e6572206f7220617070726f7665642061646472657373206360008201527f616e207472616e73666572000000000000000000000000000000000000000000602082015250565b600061120c602b83610dc8565b9150611217826111b0565b604082019050919050565b6000602082019050818103600083015261123b816111ff565b9050919050565b7f4e487b7100000000000000000000000000000000000000000000000000000000600052601160045260246000fd5b600061127c82610c3b565b915061128783610c3b565b925082820390508181111561129f5761129e611242565b5b92915050565b60006112b082610c3b565b91506112bb83610c3b565b92508282019050808211156112d3576112d2611242565b5b92915050565b7f4e487b7100000000000000000000000000000000000000000000000000000000600052602260045260246000fd5b6000600282049050600182168061132057607f821691505b602082108103611333576113326112d9565b5b50919050565b7f526563697069656e742063616e6e6f74206265207a65726f2061646472657373600082015250565b600061136f602083610dc8565b915061137a82611339565b602082019050919050565b6000602082019050818103600083015261139e81611362565b9050919050565b60008190508160005260206000209050919050565b60006020601f8301049050919050565b600082821b905092915050565b6000600883026114077fffffffffffffffffffffffffffffffffffffffffffffffffffffffffffffffff826113ca565b61141186836113ca565b95508019841693508086168417925050509392505050565b6000819050919050565b600061144e61144961144484610c3b565b611429565b610c3b565b9050919050565b6000819050919050565b61146883611433565b61147c61147482611455565b8484546113d7565b825550505050565b600090565b611491611484565b61149c81848461145f565b505050565b5b818110156114c0576114b5600082611489565b6001810190506114a2565b5050565b601f821115611505576114d6816113a5565b6114df846113ba565b810160208510156114ee578190505b6115026114fa856113ba565b8301826114a1565b50505b505050565b600082821c905092915050565b60006115286000198460080261150a565b1980831691505092915050565b60006115418383611517565b9150826002028217905092915050565b61155a82610dbd565b67ffffffffffffffff81111561157357611572610e79565b5b61157d8254611308565b6115888282856114c4565b600060209050601f8311600181146115bb57600084156115a9578287015190505b6115b38582611535565b86555061161b565b601f1984166115c9866113a5565b60005b828110156115f1578489015182556001820191506020850194506020810190506115cc565b8683101561160e578489015161160a601f891682611517565b8355505b6001600288020188555050505b50505050505056fea264697066735822122097f0c760c46d4b16fae522e33fe405e7ffed57ee0197f56576559e97520f01da64736f6c63430008140033",
  "linkReferences": {},
  "deployedLinkReferences": {}
}