{
  "_format": "hh-sol-artifact-1",
  "contractName": "Transactions",
  "sourceName": "contracts/Transactions.sol",
  "abi": [
    {
      "inputs": [],
      "stateMutability": "nonpayable",
      "type": "constructor"
    },
    {
      "anonymous": false,
      "inputs": [
        {
          "indexed": true,
          "internalType": "address",
          "name": "from",
          "type": "address"
        },
        {
          "indexed": true,
          "internalType": "address",
          "name": "to",
          "type": "address"
        },
        {
          "indexed": false,
          "internalType": "uint256",
          "name": "amount",
          "type": "uint256"
        },
        {
          "indexed": false,
          "internalType": "string",
          "name": "message",
          "type": "string"
        },
        {
          "indexed": false,
          "internalType": "string",
          "name": "keyword",
          "type": "string"
        },
        {
          "indexed": false,
          "internalType": "uint256",
          "name": "timestamp",
          "type": "uint256"
        }
      ],
      "name": "Transfer",
      "type": "event"
    },
    {
      "stateMutability": "payable",
      "type": "fallback"
    },
    {
      "inputs": [
        {
          "internalType": "address payable",
          "name": "receiver",
          "type": "address"
        },
        {
          "internalType": "uint256",
          "name": "amount",
          "type": "uint256"
        },
        {
          "internalType": "string",
          "name": "message",
          "type": "string"
        },
        {
          "internalType": "string",
          "name": "keyword",
          "type": "string"
        }
      ],
      "name": "addToBlockchain",
      "outputs": [],
      "stateMutability": "payable",
      "type": "function"
    },
    {
      "inputs": [],
      "name": "getAllTransactions",
      "outputs": [
        {
          "components": [
            {
              "internalType": "address",
              "name": "from",
              "type": "address"
            },
            {
              "internalType": "address",
              "name": "to",
              "type": "address"
            },
            {
              "internalType": "uint256",
              "name": "amount",
              "type": "uint256"
            },
            {
              "internalType": "string",
              "name": "message",
              "type": "string"
            },
            {
              "internalType": "string",
              "name": "keyword",
              "type": "string"
            },
            {
              "internalType": "uint256",
              "name": "timestamp",
              "type": "uint256"
            }
          ],
          "internalType": "struct Transactions.Transaction[]",
          "name": "",
          "type": "tuple[]"
        }
      ],
      "stateMutability": "view",
      "type": "function"
    },
    {
      "inputs": [],
      "name": "getContractBalance",
      "outputs": [
        {
          "internalType": "uint256",
          "name": "",
          "type": "uint256"
        }
      ],
      "stateMutability": "view",
      "type": "function"
    },
    {
      "inputs": [
        {
          "internalType": "address",
          "name": "user",
          "type": "address"
        }
      ],
      "name": "getTransactionCount",
      "outputs": [
        {
          "internalType": "uint256",
          "name": "",
          "type": "uint256"
        }
      ],
      "stateMutability": "view",
      "type": "function"
    },
    {
      "inputs": [
        {
          "internalType": "address",
          "name": "",
          "type": "address"
        }
      ],
      "name": "transactionCount",
      "outputs": [
        {
          "internalType": "uint256",
          "name": "",
          "type": "uint256"
        }
      ],
      "stateMutability": "view",
      "type": "function"
    },
    {
      "inputs": [
        {
          "internalType": "address payable",
          "name": "recipient",
          "type": "address"
        },
        {
          "internalType": "uint256",
          "name": "amount",
          "type": "uint256"
        }
      ],
      "name": "withdrawTo",
      "outputs": [],
      "stateMutability": "nonpayable",
      "type": "function"
    },
    {
      "stateMutability": "payable",
      "type": "receive"
    }
  ],
  "bytecode": "0x608060405234801561001057600080fd5b5033600260006101000a81548173ffffffffffffffffffffffffffffffffffffffff021916908373ffffffffffffffffffffffffffffffffffffffff160217905550611525806100616000396000f3fe6080604052600436106100595760003560e01c8063205c28781461006257806323ca0cd21461008b57806327506f53146100c85780636f9fb98a146100f357806399be33751461011e578063cc2d7ead1461015b57610060565b3661006057005b005b34801561006e57600080fd5b50610089600480360381019061008491906109d0565b610177565b005b34801561009757600080fd5b506100b260048036038101906100ad9190610a4e565b610304565b6040516100bf9190610a8a565b60405180910390f35b3480156100d457600080fd5b506100dd61034d565b6040516100ea9190610ca5565b60405180910390f35b3480156100ff57600080fd5b50610108610590565b6040516101159190610a8a565b60405180910390f35b34801561012a57600080fd5b5061014560048036038101906101409190610a4e565b610598565b6040516101529190610a8a565b60405180910390f35b61017560048036038101906101709190610dfc565b6105b0565b005b600260009054906101000a900473ffffffffffffffffffffffffffffffffffffffff1673ffffffffffffffffffffffffffffffffffffffff163373ffffffffffffffffffffffffffffffffffffffff1614610207576040517f08c379a00000000000000000000000000000000000000000000000000000000081526004016101fe90610ef8565b60405180910390fd5b8047101561024a576040517f08c379a000000000000000000000000000000000000000000000000000000000815260040161024190610f64565b60405180910390fd5b600073ffffffffffffffffffffffffffffffffffffffff168273ffffffffffffffffffffffffffffffffffffffff16036102b9576040517f08c379a00000000000000000000000000000000000000000000000000000000081526004016102b090610fd0565b60405180910390fd5b8173ffffffffffffffffffffffffffffffffffffffff166108fc829081150290604051600060405180830381858888f193505050501580156102ff573d6000803e3d6000fd5b505050565b6000600160008373ffffffffffffffffffffffffffffffffffffffff1673ffffffffffffffffffffffffffffffffffffffff168152602001908152602001600020549050919050565b60606000805480602002602001604051908101604052809291908181526020016000905b8282101561058757838290600052602060002090600602016040518060c00160405290816000820160009054906101000a900473ffffffffffffffffffffffffffffffffffffffff1673ffffffffffffffffffffffffffffffffffffffff1673ffffffffffffffffffffffffffffffffffffffff1681526020016001820160009054906101000a900473ffffffffffffffffffffffffffffffffffffffff1673ffffffffffffffffffffffffffffffffffffffff1673ffffffffffffffffffffffffffffffffffffffff1681526020016002820154815260200160038201805461045a9061101f565b80601f01602080910402602001604051908101604052809291908181526020018280546104869061101f565b80156104d35780601f106104a8576101008083540402835291602001916104d3565b820191906000526020600020905b8154815290600101906020018083116104b657829003601f168201915b505050505081526020016004820180546104ec9061101f565b80601f01602080910402602001604051908101604052809291908181526020018280546105189061101f565b80156105655780601f1061053a57610100808354040283529160200191610565565b820191906000526020600020905b81548152906001019060200180831161054857829003601f168201915b5050505050815260200160058201548152505081526020019060010190610371565b50505050905090565b600047905090565b60016020528060005260406000206000915090505481565b8234146105f2576040517f08c379a00000000000000000000000000000000000000000000000000000000081526004016105e99061109c565b60405180910390fd5b600073ffffffffffffffffffffffffffffffffffffffff168473ffffffffffffffffffffffffffffffffffffffff1603610661576040517f08c379a000000000000000000000000000000000000000000000000000000000815260040161065890610fd0565b60405180910390fd5b60008473ffffffffffffffffffffffffffffffffffffffff1634604051610687906110ed565b60006040518083038185875af1925050503d80600081146106c4576040519150601f19603f3d011682016040523d82523d6000602084013e6106c9565b606091505b505090508061070d576040517f08c379a00000000000000000000000000000000000000000000000000000000081526004016107049061114e565b60405180910390fd5b60006040518060c001604052803373ffffffffffffffffffffffffffffffffffffffff1681526020018773ffffffffffffffffffffffffffffffffffffffff16815260200134815260200185815260200184815260200142815250908060018154018082558091505060019003906000526020600020906006020160009091909190915060008201518160000160006101000a81548173ffffffffffffffffffffffffffffffffffffffff021916908373ffffffffffffffffffffffffffffffffffffffff16021790555060208201518160010160006101000a81548173ffffffffffffffffffffffffffffffffffffffff021916908373ffffffffffffffffffffffffffffffffffffffff16021790555060408201518160020155606082015181600301908161083e919061131a565b506080820151816004019081610854919061131a565b5060a082015181600501555050600160003373ffffffffffffffffffffffffffffffffffffffff1673ffffffffffffffffffffffffffffffffffffffff16815260200190815260200160002060008154809291906108b19061141b565b91905055508473ffffffffffffffffffffffffffffffffffffffff163373ffffffffffffffffffffffffffffffffffffffff167f5e245fe3ab1aa0e8ad77928e6d608e234861c6f4cc61f42cdb647db3f4f3ca4634868642604051610919949392919061149c565b60405180910390a35050505050565b6000604051905090565b600080fd5b600080fd5b600073ffffffffffffffffffffffffffffffffffffffff82169050919050565b60006109678261093c565b9050919050565b6109778161095c565b811461098257600080fd5b50565b6000813590506109948161096e565b92915050565b6000819050919050565b6109ad8161099a565b81146109b857600080fd5b50565b6000813590506109ca816109a4565b92915050565b600080604083850312156109e7576109e6610932565b5b60006109f585828601610985565b9250506020610a06858286016109bb565b9150509250929050565b6000610a1b8261093c565b9050919050565b610a2b81610a10565b8114610a3657600080fd5b50565b600081359050610a4881610a22565b92915050565b600060208284031215610a6457610a63610932565b5b6000610a7284828501610a39565b91505092915050565b610a848161099a565b82525050565b6000602082019050610a9f6000830184610a7b565b92915050565b600081519050919050565b600082825260208201905092915050565b6000819050602082019050919050565b610ada81610a10565b82525050565b610ae98161099a565b82525050565b600081519050919050565b600082825260208201905092915050565b60005b83811015610b29578082015181840152602081019050610b0e565b60008484015250505050565b6000601f19601f8301169050919050565b6000610b5182610aef565b610b5b8185610afa565b9350610b6b818560208601610b0b565b610b7481610b35565b840191505092915050565b600060c083016000830151610b976000860182610ad1565b506020830151610baa6020860182610ad1565b506040830151610bbd6040860182610ae0565b5060608301518482036060860152610bd58282610b46565b91505060808301518482036080860152610bef8282610b46565b91505060a0830151610c0460a0860182610ae0565b508091505092915050565b6000610c1b8383610b7f565b905092915050565b6000602082019050919050565b6000610c3b82610aa5565b610c458185610ab0565b935083602082028501610c5785610ac1565b8060005b85811015610c935784840389528151610c748582610c0f565b9450610c7f83610c23565b925060208a01995050600181019050610c5b565b50829750879550505050505092915050565b60006020820190508181036000830152610cbf8184610c30565b905092915050565b600080fd5b600080fd5b7f4e487b7100000000000000000000000000000000000000000000000000000000600052604160045260246000fd5b610d0982610b35565b810181811067ffffffffffffffff82111715610d2857610d27610cd1565b5b80604052505050565b6000610d3b610928565b9050610d478282610d00565b919050565b600067ffffffffffffffff821115610d6757610d66610cd1565b5b610d7082610b35565b9050602081019050919050565b82818337600083830152505050565b6000610d9f610d9a84610d4c565b610d31565b905082815260208101848484011115610dbb57610dba610ccc565b5b610dc6848285610d7d565b509392505050565b600082601f830112610de357610de2610cc7565b5b8135610df3848260208601610d8c565b91505092915050565b60008060008060808587031215610e1657610e15610932565b5b6000610e2487828801610985565b9450506020610e35878288016109bb565b935050604085013567ffffffffffffffff811115610e5657610e55610937565b5b610e6287828801610dce565b925050606085013567ffffffffffffffff811115610e8357610e82610937565b5b610e8f87828801610dce565b91505092959194509250565b600082825260208201905092915050565b7f4f6e6c79206f776e65722063616e207769746864726177000000000000000000600082015250565b6000610ee2601783610e9b565b9150610eed82610eac565b602082019050919050565b60006020820190508181036000830152610f1181610ed5565b9050919050565b7f496e73756666696369656e7420636f6e74726163742062616c616e6365000000600082015250565b6000610f4e601d83610e9b565b9150610f5982610f18565b602082019050919050565b60006020820190508181036000830152610f7d81610f41565b9050919050565b7f496e76616c696420726563697069656e74206164647265737300000000000000600082015250565b6000610fba601983610e9b565b9150610fc582610f84565b602082019050919050565b60006020820190508181036000830152610fe981610fad565b9050919050565b7f4e487b7100000000000000000000000000000000000000000000000000000000600052602260045260246000fd5b6000600282049050600182168061103757607f821691505b60208210810361104a57611049610ff0565b5b50919050565b7f416d6f756e74206d69736d617463680000000000000000000000000000000000600082015250565b6000611086600f83610e9b565b915061109182611050565b602082019050919050565b600060208201905081810360008301526110b581611079565b9050919050565b600081905092915050565b50565b60006110d76000836110bc565b91506110e2826110c7565b600082019050919050565b60006110f8826110ca565b9150819050919050565b7f5472616e73666572206661696c65640000000000000000000000000000000000600082015250565b6000611138600f83610e9b565b915061114382611102565b602082019050919050565b600060208201905081810360008301526111678161112b565b9050919050565b60008190508160005260206000209050919050565b60006020601f8301049050919050565b600082821b905092915050565b6000600883026111d07fffffffffffffffffffffffffffffffffffffffffffffffffffffffffffffffff82611193565b6111da8683611193565b95508019841693508086168417925050509392505050565b6000819050919050565b600061121761121261120d8461099a565b6111f2565b61099a565b9050919050565b6000819050919050565b611231836111fc565b61124561123d8261121e565b8484546111a0565b825550505050565b600090565b61125a61124d565b611265818484611228565b505050565b5b818110156112895761127e600082611252565b60018101905061126b565b5050565b601f8211156112ce5761129f8161116e565b6112a884611183565b810160208510156112b7578190505b6112cb6112c385611183565b83018261126a565b50505b505050565b600082821c905092915050565b60006112f1600019846008026112d3565b1980831691505092915050565b600061130a83836112e0565b9150826002028217905092915050565b61132382610aef565b67ffffffffffffffff81111561133c5761133b610cd1565b5b611346825461101f565b61135182828561128d565b600060209050601f8311600181146113845760008415611372578287015190505b61137c85826112fe565b8655506113e4565b601f1984166113928661116e565b60005b828110156113ba57848901518255600182019150602085019450602081019050611395565b868310156113d757848901516113d3601f8916826112e0565b8355505b6001600288020188555050505b505050505050565b7f4e487b7100000000000000000000000000000000000000000000000000000000600052601160045260246000fd5b60006114268261099a565b91507fffffffffffffffffffffffffffffffffffffffffffffffffffffffffffffffff8203611458576114576113ec565b5b600182019050919050565b600061146e82610aef565b6114788185610e9b565b9350611488818560208601610b0b565b61149181610b35565b840191505092915050565b60006080820190506114b16000830187610a7b565b81810360208301526114c38186611463565b905081810360408301526114d78185611463565b90506114e66060830184610a7b565b9594505050505056fea2646970667358221220c70a5530b17b476792cacd46b947e727e135c495e3e0ed4209207c9220f34d8d64736f6c63430008140033",
  "linkReferences": {},
  "deployedLinkReferences": {}
}